{
  "_format": "hh-sol-artifact-1",
  "contractName": "LasticketNFT",
  "sourceName": "contracts/LasticketNFT.sol",
  "abi": [
    {
      "inputs": [],
      "stateMutability": "payable",
      "type": "constructor"
    },
    {
      "anonymous": false,
      "inputs": [
        {
          "indexed": true,
          "internalType": "address",
          "name": "owner",
          "type": "address"
        },
        {
          "indexed": true,
          "internalType": "address",
          "name": "approved",
          "type": "address"
        },
        {
          "indexed": true,
          "internalType": "uint256",
          "name": "tokenId",
          "type": "uint256"
        }
      ],
      "name": "Approval",
      "type": "event"
    },
    {
      "anonymous": false,
      "inputs": [
        {
          "indexed": true,
          "internalType": "address",
          "name": "owner",
          "type": "address"
        },
        {
          "indexed": true,
          "internalType": "address",
          "name": "operator",
          "type": "address"
        },
        {
          "indexed": false,
          "internalType": "bool",
          "name": "approved",
          "type": "bool"
        }
      ],
      "name": "ApprovalForAll",
      "type": "event"
    },
    {
      "anonymous": false,
      "inputs": [
        {
          "indexed": true,
          "internalType": "address",
          "name": "previousOwner",
          "type": "address"
        },
        {
          "indexed": true,
          "internalType": "address",
          "name": "newOwner",
          "type": "address"
        }
      ],
      "name": "OwnershipTransferred",
      "type": "event"
    },
    {
      "anonymous": false,
      "inputs": [
        {
          "indexed": true,
          "internalType": "address",
          "name": "from",
          "type": "address"
        },
        {
          "indexed": true,
          "internalType": "address",
          "name": "to",
          "type": "address"
        },
        {
          "indexed": true,
          "internalType": "uint256",
          "name": "tokenId",
          "type": "uint256"
        }
      ],
      "name": "Transfer",
      "type": "event"
    },
    {
      "inputs": [
        {
          "internalType": "address",
          "name": "to",
          "type": "address"
        },
        {
          "internalType": "uint256",
          "name": "tokenId",
          "type": "uint256"
        }
      ],
      "name": "approve",
      "outputs": [],
      "stateMutability": "nonpayable",
      "type": "function"
    },
    {
      "inputs": [
        {
          "internalType": "address",
          "name": "owner",
          "type": "address"
        }
      ],
      "name": "balanceOf",
      "outputs": [
        {
          "internalType": "uint256",
          "name": "",
          "type": "uint256"
        }
      ],
      "stateMutability": "view",
      "type": "function"
    },
    {
      "inputs": [],
      "name": "currentSupplyMinted",
      "outputs": [
        {
          "internalType": "uint256",
          "name": "",
          "type": "uint256"
        }
      ],
      "stateMutability": "view",
      "type": "function"
    },
    {
      "inputs": [
        {
          "internalType": "uint256",
          "name": "tokenId",
          "type": "uint256"
        }
      ],
      "name": "getApproved",
      "outputs": [
        {
          "internalType": "address",
          "name": "",
          "type": "address"
        }
      ],
      "stateMutability": "view",
      "type": "function"
    },
    {
      "inputs": [
        {
          "internalType": "address",
          "name": "owner",
          "type": "address"
        },
        {
          "internalType": "address",
          "name": "operator",
          "type": "address"
        }
      ],
      "name": "isApprovedForAll",
      "outputs": [
        {
          "internalType": "bool",
          "name": "",
          "type": "bool"
        }
      ],
      "stateMutability": "view",
      "type": "function"
    },
    {
      "inputs": [],
      "name": "maxMintSupply",
      "outputs": [
        {
          "internalType": "uint256",
          "name": "",
          "type": "uint256"
        }
      ],
      "stateMutability": "view",
      "type": "function"
    },
    {
      "inputs": [],
      "name": "maxPerWallet",
      "outputs": [
        {
          "internalType": "uint256",
          "name": "",
          "type": "uint256"
        }
      ],
      "stateMutability": "view",
      "type": "function"
    },
    {
      "inputs": [
        {
          "internalType": "uint256",
          "name": "reqMintQuantity_",
          "type": "uint256"
        }
      ],
      "name": "mint",
      "outputs": [],
      "stateMutability": "payable",
      "type": "function"
    },
    {
      "inputs": [],
      "name": "mintEnabled",
      "outputs": [
        {
          "internalType": "bool",
          "name": "",
          "type": "bool"
        }
      ],
      "stateMutability": "view",
      "type": "function"
    },
    {
      "inputs": [],
      "name": "mintPrice",
      "outputs": [
        {
          "internalType": "uint256",
          "name": "",
          "type": "uint256"
        }
      ],
      "stateMutability": "view",
      "type": "function"
    },
    {
      "inputs": [],
      "name": "name",
      "outputs": [
        {
          "internalType": "string",
          "name": "",
          "type": "string"
        }
      ],
      "stateMutability": "view",
      "type": "function"
    },
    {
      "inputs": [],
      "name": "owner",
      "outputs": [
        {
          "internalType": "address",
          "name": "",
          "type": "address"
        }
      ],
      "stateMutability": "view",
      "type": "function"
    },
    {
      "inputs": [
        {
          "internalType": "uint256",
          "name": "tokenId",
          "type": "uint256"
        }
      ],
      "name": "ownerOf",
      "outputs": [
        {
          "internalType": "address",
          "name": "",
          "type": "address"
        }
      ],
      "stateMutability": "view",
      "type": "function"
    },
    {
      "inputs": [],
      "name": "renounceOwnership",
      "outputs": [],
      "stateMutability": "nonpayable",
      "type": "function"
    },
    {
      "inputs": [
        {
          "internalType": "address",
          "name": "from",
          "type": "address"
        },
        {
          "internalType": "address",
          "name": "to",
          "type": "address"
        },
        {
          "internalType": "uint256",
          "name": "tokenId",
          "type": "uint256"
        }
      ],
      "name": "safeTransferFrom",
      "outputs": [],
      "stateMutability": "nonpayable",
      "type": "function"
    },
    {
      "inputs": [
        {
          "internalType": "address",
          "name": "from",
          "type": "address"
        },
        {
          "internalType": "address",
          "name": "to",
          "type": "address"
        },
        {
          "internalType": "uint256",
          "name": "tokenId",
          "type": "uint256"
        },
        {
          "internalType": "bytes",
          "name": "_data",
          "type": "bytes"
        }
      ],
      "name": "safeTransferFrom",
      "outputs": [],
      "stateMutability": "nonpayable",
      "type": "function"
    },
    {
      "inputs": [
        {
          "internalType": "address",
          "name": "operator",
          "type": "address"
        },
        {
          "internalType": "bool",
          "name": "approved",
          "type": "bool"
        }
      ],
      "name": "setApprovalForAll",
      "outputs": [],
      "stateMutability": "nonpayable",
      "type": "function"
    },
    {
      "inputs": [
        {
          "internalType": "bool",
          "name": "mintEnabled_",
          "type": "bool"
        }
      ],
      "name": "setMintEnabled",
      "outputs": [],
      "stateMutability": "nonpayable",
      "type": "function"
    },
    {
      "inputs": [
        {
          "internalType": "string",
          "name": "tokenUri_",
          "type": "string"
        }
      ],
      "name": "setTokenUri",
      "outputs": [],
      "stateMutability": "nonpayable",
      "type": "function"
    },
    {
      "inputs": [
        {
          "internalType": "bytes4",
          "name": "interfaceId",
          "type": "bytes4"
        }
      ],
      "name": "supportsInterface",
      "outputs": [
        {
          "internalType": "bool",
          "name": "",
          "type": "bool"
        }
      ],
      "stateMutability": "view",
      "type": "function"
    },
    {
      "inputs": [],
      "name": "symbol",
      "outputs": [
        {
          "internalType": "string",
          "name": "",
          "type": "string"
        }
      ],
      "stateMutability": "view",
      "type": "function"
    },
    {
      "inputs": [
        {
          "internalType": "uint256",
          "name": "tokenId_",
          "type": "uint256"
        }
      ],
      "name": "tokenURI",
      "outputs": [
        {
          "internalType": "string",
          "name": "",
          "type": "string"
        }
      ],
      "stateMutability": "view",
      "type": "function"
    },
    {
      "inputs": [
        {
          "internalType": "address",
          "name": "from",
          "type": "address"
        },
        {
          "internalType": "address",
          "name": "to",
          "type": "address"
        },
        {
          "internalType": "uint256",
          "name": "tokenId",
          "type": "uint256"
        }
      ],
      "name": "transferFrom",
      "outputs": [],
      "stateMutability": "nonpayable",
      "type": "function"
    },
    {
      "inputs": [
        {
          "internalType": "address",
          "name": "newOwner",
          "type": "address"
        }
      ],
      "name": "transferOwnership",
      "outputs": [],
      "stateMutability": "nonpayable",
      "type": "function"
    },
    {
      "inputs": [
        {
          "internalType": "address",
          "name": "",
          "type": "address"
        }
      ],
      "name": "walletCurrentSupplyMinted",
      "outputs": [
        {
          "internalType": "uint256",
          "name": "",
          "type": "uint256"
        }
      ],
      "stateMutability": "view",
      "type": "function"
    },
    {
      "inputs": [],
      "name": "withdraw",
      "outputs": [],
      "stateMutability": "payable",
      "type": "function"
    }
  ],
  "bytecode": "0x60806040526040518060400160405280600981526020017f4c41535449434b455400000000000000000000000000000000000000000000008152506040518060400160405280600881526020017f434f4e534d494e540000000000000000000000000000000000000000000000008152508160009080519060200190620000889291906200020c565b508060019080519060200190620000a19291906200020c565b505050620000c4620000b86200013e60201b60201c565b6200014660201b60201c565b67016345785d8a000060078190555060146009819055506003600a819055507396dfcc6413e09c9b02e7892bec6e215d57ef19a7600e60006101000a81548173ffffffffffffffffffffffffffffffffffffffff021916908373ffffffffffffffffffffffffffffffffffffffff16021790555062000321565b600033905090565b6000600660009054906101000a900473ffffffffffffffffffffffffffffffffffffffff16905081600660006101000a81548173ffffffffffffffffffffffffffffffffffffffff021916908373ffffffffffffffffffffffffffffffffffffffff1602179055508173ffffffffffffffffffffffffffffffffffffffff168173ffffffffffffffffffffffffffffffffffffffff167f8be0079c531659141344cd1fd0a4f28419497f9722a3daafe3b4186f6b6457e060405160405180910390a35050565b8280546200021a90620002bc565b90600052602060002090601f0160209004810192826200023e57600085556200028a565b82601f106200025957805160ff19168380011785556200028a565b828001600101855582156200028a579182015b82811115620002895782518255916020019190600101906200026c565b5b5090506200029991906200029d565b5090565b5b80821115620002b85760008160009055506001016200029e565b5090565b60006002820490506001821680620002d557607f821691505b60208210811415620002ec57620002eb620002f2565b5b50919050565b7f4e487b7100000000000000000000000000000000000000000000000000000000600052602260045260246000fd5b61378380620003316000396000f3fe6080604052600436106101815760003560e01c806383f3cd9f116100d1578063c285e1071161008a578063d9aaacde11610064578063d9aaacde14610542578063e985e9c51461057f578063f2fde38b146105bc578063f46a04eb146105e557610181565b8063c285e107146104af578063c87b56dd146104da578063d12397301461051757610181565b806383f3cd9f146103c05780638da5cb5b146103eb57806395d89b4114610416578063a0712d6814610441578063a22cb4651461045d578063b88d4fde1461048657610181565b80633ccfd60b1161013e5780636352211e116101185780636352211e146103045780636817c76c1461034157806370a082311461036c578063715018a6146103a957610181565b80633ccfd60b146102a657806342842e0e146102b0578063453c2310146102d957610181565b806301ffc9a7146101865780630675b7c6146101c357806306fdde03146101ec578063081812fc14610217578063095ea7b31461025457806323b872dd1461027d575b600080fd5b34801561019257600080fd5b506101ad60048036038101906101a8919061242f565b61060e565b6040516101ba9190612a31565b60405180910390f35b3480156101cf57600080fd5b506101ea60048036038101906101e59190612481565b6106f0565b005b3480156101f857600080fd5b50610201610782565b60405161020e9190612a4c565b60405180910390f35b34801561022357600080fd5b5061023e600480360381019061023991906124c6565b610814565b60405161024b91906129ca565b60405180910390f35b34801561026057600080fd5b5061027b600480360381019061027691906123ca565b610899565b005b34801561028957600080fd5b506102a4600480360381019061029f91906122c4565b6109b1565b005b6102ae610a11565b005b3480156102bc57600080fd5b506102d760048036038101906102d291906122c4565b610b25565b005b3480156102e557600080fd5b506102ee610b45565b6040516102fb9190612d2e565b60405180910390f35b34801561031057600080fd5b5061032b600480360381019061032691906124c6565b610b4b565b60405161033891906129ca565b60405180910390f35b34801561034d57600080fd5b50610356610bfd565b6040516103639190612d2e565b60405180910390f35b34801561037857600080fd5b50610393600480360381019061038e919061225f565b610c03565b6040516103a09190612d2e565b60405180910390f35b3480156103b557600080fd5b506103be610cbb565b005b3480156103cc57600080fd5b506103d5610d43565b6040516103e29190612d2e565b60405180910390f35b3480156103f757600080fd5b50610400610d49565b60405161040d91906129ca565b60405180910390f35b34801561042257600080fd5b5061042b610d73565b6040516104389190612a4c565b60405180910390f35b61045b600480360381019061045691906124c6565b610e05565b005b34801561046957600080fd5b50610484600480360381019061047f919061238e565b611028565b005b34801561049257600080fd5b506104ad60048036038101906104a89190612313565b61103e565b005b3480156104bb57600080fd5b506104c46110a0565b6040516104d19190612d2e565b60405180910390f35b3480156104e657600080fd5b5061050160048036038101906104fc91906124c6565b6110a6565b60405161050e9190612a4c565b60405180910390f35b34801561052357600080fd5b5061052c611122565b6040516105399190612a31565b60405180910390f35b34801561054e57600080fd5b506105696004803603810190610564919061225f565b611135565b6040516105769190612d2e565b60405180910390f35b34801561058b57600080fd5b506105a660048036038101906105a19190612288565b61114d565b6040516105b39190612a31565b60405180910390f35b3480156105c857600080fd5b506105e360048036038101906105de919061225f565b6111e1565b005b3480156105f157600080fd5b5061060c60048036038101906106079190612406565b6112d9565b005b60007f80ac58cd000000000000000000000000000000000000000000000000000000007bffffffffffffffffffffffffffffffffffffffffffffffffffffffff1916827bffffffffffffffffffffffffffffffffffffffffffffffffffffffff191614806106d957507f5b5e139f000000000000000000000000000000000000000000000000000000007bffffffffffffffffffffffffffffffffffffffffffffffffffffffff1916827bffffffffffffffffffffffffffffffffffffffffffffffffffffffff1916145b806106e957506106e882611372565b5b9050919050565b6106f86113dc565b73ffffffffffffffffffffffffffffffffffffffff16610716610d49565b73ffffffffffffffffffffffffffffffffffffffff161461076c576040517f08c379a000000000000000000000000000000000000000000000000000000000815260040161076390612cae565b60405180910390fd5b8181600c919061077d9291906120a1565b505050565b60606000805461079190612fcd565b80601f01602080910402602001604051908101604052809291908181526020018280546107bd90612fcd565b801561080a5780601f106107df5761010080835404028352916020019161080a565b820191906000526020600020905b8154815290600101906020018083116107ed57829003601f168201915b5050505050905090565b600061081f826113e4565b61085e576040517f08c379a000000000000000000000000000000000000000000000000000000000815260040161085590612c6e565b60405180910390fd5b6004600083815260200190815260200160002060009054906101000a900473ffffffffffffffffffffffffffffffffffffffff169050919050565b60006108a482610b4b565b90508073ffffffffffffffffffffffffffffffffffffffff168373ffffffffffffffffffffffffffffffffffffffff161415610915576040517f08c379a000000000000000000000000000000000000000000000000000000000815260040161090c90612cce565b60405180910390fd5b8073ffffffffffffffffffffffffffffffffffffffff166109346113dc565b73ffffffffffffffffffffffffffffffffffffffff16148061096357506109628161095d6113dc565b61114d565b5b6109a2576040517f08c379a000000000000000000000000000000000000000000000000000000000815260040161099990612bae565b60405180910390fd5b6109ac8383611450565b505050565b6109c26109bc6113dc565b82611509565b610a01576040517f08c379a00000000000000000000000000000000000000000000000000000000081526004016109f890612d0e565b60405180910390fd5b610a0c8383836115e7565b505050565b60004711610a54576040517f08c379a0000000000000000000000000000000000000000000000000000000008152600401610a4b90612b8e565b60405180910390fd5b6000600e60009054906101000a900473ffffffffffffffffffffffffffffffffffffffff1673ffffffffffffffffffffffffffffffffffffffff1647604051610a9c906129b5565b60006040518083038185875af1925050503d8060008114610ad9576040519150601f19603f3d011682016040523d82523d6000602084013e610ade565b606091505b5050905080610b22576040517f08c379a0000000000000000000000000000000000000000000000000000000008152600401610b1990612aae565b60405180910390fd5b50565b610b408383836040518060200160405280600081525061103e565b505050565b600a5481565b6000806002600084815260200190815260200160002060009054906101000a900473ffffffffffffffffffffffffffffffffffffffff169050600073ffffffffffffffffffffffffffffffffffffffff168173ffffffffffffffffffffffffffffffffffffffff161415610bf4576040517f08c379a0000000000000000000000000000000000000000000000000000000008152600401610beb90612bee565b60405180910390fd5b80915050919050565b60075481565b60008073ffffffffffffffffffffffffffffffffffffffff168273ffffffffffffffffffffffffffffffffffffffff161415610c74576040517f08c379a0000000000000000000000000000000000000000000000000000000008152600401610c6b90612bce565b60405180910390fd5b600360008373ffffffffffffffffffffffffffffffffffffffff1673ffffffffffffffffffffffffffffffffffffffff168152602001908152602001600020549050919050565b610cc36113dc565b73ffffffffffffffffffffffffffffffffffffffff16610ce1610d49565b73ffffffffffffffffffffffffffffffffffffffff1614610d37576040517f08c379a0000000000000000000000000000000000000000000000000000000008152600401610d2e90612cae565b60405180910390fd5b610d41600061184e565b565b60085481565b6000600660009054906101000a900473ffffffffffffffffffffffffffffffffffffffff16905090565b606060018054610d8290612fcd565b80601f0160208091040260200160405190810160405280929190818152602001828054610dae90612fcd565b8015610dfb5780601f10610dd057610100808354040283529160200191610dfb565b820191906000526020600020905b815481529060010190602001808311610dde57829003601f168201915b5050505050905090565b600b60009054906101000a900460ff16610e54576040517f08c379a0000000000000000000000000000000000000000000000000000000008152600401610e4b90612a6e565b60405180910390fd5b60075481610e629190612e89565b3414610ea3576040517f08c379a0000000000000000000000000000000000000000000000000000000008152600401610e9a90612c2e565b60405180910390fd5b60095481600854610eb49190612e02565b1115610ef5576040517f08c379a0000000000000000000000000000000000000000000000000000000008152600401610eec90612c0e565b60405180910390fd5b600a5481600d60003373ffffffffffffffffffffffffffffffffffffffff1673ffffffffffffffffffffffffffffffffffffffff16815260200190815260200160002054610f439190612e02565b1115610f84576040517f08c379a0000000000000000000000000000000000000000000000000000000008152600401610f7b90612cee565b60405180910390fd5b6000600190505b81811161102457600d60003373ffffffffffffffffffffffffffffffffffffffff1673ffffffffffffffffffffffffffffffffffffffff1681526020019081526020016000206000815480929190610fe290613030565b919050555060086000815480929190610ffa90613030565b9190505550600060085490506110103382611914565b50808061101c90613030565b915050610f8b565b5050565b61103a6110336113dc565b8383611932565b5050565b61104f6110496113dc565b83611509565b61108e576040517f08c379a000000000000000000000000000000000000000000000000000000000815260040161108590612d0e565b60405180910390fd5b61109a84848484611a9f565b50505050565b60095481565b60606110b1826113e4565b6110f0576040517f08c379a00000000000000000000000000000000000000000000000000000000081526004016110e790612c8e565b60405180910390fd5b600c6110fb83611afb565b60405160200161110c929190612986565b6040516020818303038152906040529050919050565b600b60009054906101000a900460ff1681565b600d6020528060005260406000206000915090505481565b6000600560008473ffffffffffffffffffffffffffffffffffffffff1673ffffffffffffffffffffffffffffffffffffffff16815260200190815260200160002060008373ffffffffffffffffffffffffffffffffffffffff1673ffffffffffffffffffffffffffffffffffffffff16815260200190815260200160002060009054906101000a900460ff16905092915050565b6111e96113dc565b73ffffffffffffffffffffffffffffffffffffffff16611207610d49565b73ffffffffffffffffffffffffffffffffffffffff161461125d576040517f08c379a000000000000000000000000000000000000000000000000000000000815260040161125490612cae565b60405180910390fd5b600073ffffffffffffffffffffffffffffffffffffffff168173ffffffffffffffffffffffffffffffffffffffff1614156112cd576040517f08c379a00000000000000000000000000000000000000000000000000000000081526004016112c490612ace565b60405180910390fd5b6112d68161184e565b50565b6112e16113dc565b73ffffffffffffffffffffffffffffffffffffffff166112ff610d49565b73ffffffffffffffffffffffffffffffffffffffff1614611355576040517f08c379a000000000000000000000000000000000000000000000000000000000815260040161134c90612cae565b60405180910390fd5b80600b60006101000a81548160ff02191690831515021790555050565b60007f01ffc9a7000000000000000000000000000000000000000000000000000000007bffffffffffffffffffffffffffffffffffffffffffffffffffffffff1916827bffffffffffffffffffffffffffffffffffffffffffffffffffffffff1916149050919050565b600033905090565b60008073ffffffffffffffffffffffffffffffffffffffff166002600084815260200190815260200160002060009054906101000a900473ffffffffffffffffffffffffffffffffffffffff1673ffffffffffffffffffffffffffffffffffffffff1614159050919050565b816004600083815260200190815260200160002060006101000a81548173ffffffffffffffffffffffffffffffffffffffff021916908373ffffffffffffffffffffffffffffffffffffffff160217905550808273ffffffffffffffffffffffffffffffffffffffff166114c383610b4b565b73ffffffffffffffffffffffffffffffffffffffff167f8c5be1e5ebec7d5bd14f71427d1e84f3dd0314c0f7b2291e5b200ac8c7c3b92560405160405180910390a45050565b6000611514826113e4565b611553576040517f08c379a000000000000000000000000000000000000000000000000000000000815260040161154a90612b6e565b60405180910390fd5b600061155e83610b4b565b90508073ffffffffffffffffffffffffffffffffffffffff168473ffffffffffffffffffffffffffffffffffffffff1614806115cd57508373ffffffffffffffffffffffffffffffffffffffff166115b584610814565b73ffffffffffffffffffffffffffffffffffffffff16145b806115de57506115dd818561114d565b5b91505092915050565b8273ffffffffffffffffffffffffffffffffffffffff1661160782610b4b565b73ffffffffffffffffffffffffffffffffffffffff161461165d576040517f08c379a000000000000000000000000000000000000000000000000000000000815260040161165490612aee565b60405180910390fd5b600073ffffffffffffffffffffffffffffffffffffffff168273ffffffffffffffffffffffffffffffffffffffff1614156116cd576040517f08c379a00000000000000000000000000000000000000000000000000000000081526004016116c490612b2e565b60405180910390fd5b6116d8838383611ca8565b6116e3600082611450565b6001600360008573ffffffffffffffffffffffffffffffffffffffff1673ffffffffffffffffffffffffffffffffffffffff16815260200190815260200160002060008282546117339190612ee3565b925050819055506001600360008473ffffffffffffffffffffffffffffffffffffffff1673ffffffffffffffffffffffffffffffffffffffff168152602001908152602001600020600082825461178a9190612e02565b92505081905550816002600083815260200190815260200160002060006101000a81548173ffffffffffffffffffffffffffffffffffffffff021916908373ffffffffffffffffffffffffffffffffffffffff160217905550808273ffffffffffffffffffffffffffffffffffffffff168473ffffffffffffffffffffffffffffffffffffffff167fddf252ad1be2c89b69c2b068fc378daa952ba7f163c4a11628f55a4df523b3ef60405160405180910390a4611849838383611cad565b505050565b6000600660009054906101000a900473ffffffffffffffffffffffffffffffffffffffff16905081600660006101000a81548173ffffffffffffffffffffffffffffffffffffffff021916908373ffffffffffffffffffffffffffffffffffffffff1602179055508173ffffffffffffffffffffffffffffffffffffffff168173ffffffffffffffffffffffffffffffffffffffff167f8be0079c531659141344cd1fd0a4f28419497f9722a3daafe3b4186f6b6457e060405160405180910390a35050565b61192e828260405180602001604052806000815250611cb2565b5050565b8173ffffffffffffffffffffffffffffffffffffffff168373ffffffffffffffffffffffffffffffffffffffff1614156119a1576040517f08c379a000000000000000000000000000000000000000000000000000000000815260040161199890612b4e565b60405180910390fd5b80600560008573ffffffffffffffffffffffffffffffffffffffff1673ffffffffffffffffffffffffffffffffffffffff16815260200190815260200160002060008473ffffffffffffffffffffffffffffffffffffffff1673ffffffffffffffffffffffffffffffffffffffff16815260200190815260200160002060006101000a81548160ff0219169083151502179055508173ffffffffffffffffffffffffffffffffffffffff168373ffffffffffffffffffffffffffffffffffffffff167f17307eab39ab6107e8899845ad3d59bd9653f200f220920489ca2b5937696c3183604051611a929190612a31565b60405180910390a3505050565b611aaa8484846115e7565b611ab684848484611d0d565b611af5576040517f08c379a0000000000000000000000000000000000000000000000000000000008152600401611aec90612a8e565b60405180910390fd5b50505050565b60606000821415611b43576040518060400160405280600181526020017f30000000000000000000000000000000000000000000000000000000000000008152509050611ca3565b600082905060005b60008214611b75578080611b5e90613030565b915050600a82611b6e9190612e58565b9150611b4b565b60008167ffffffffffffffff811115611bb7577f4e487b7100000000000000000000000000000000000000000000000000000000600052604160045260246000fd5b6040519080825280601f01601f191660200182016040528015611be95781602001600182028036833780820191505090505b5090505b60008514611c9c57600182611c029190612ee3565b9150600a85611c119190613079565b6030611c1d9190612e02565b60f81b818381518110611c59577f4e487b7100000000000000000000000000000000000000000000000000000000600052603260045260246000fd5b60200101907effffffffffffffffffffffffffffffffffffffffffffffffffffffffffffff1916908160001a905350600a85611c959190612e58565b9450611bed565b8093505050505b919050565b505050565b505050565b611cbc8383611ea4565b611cc96000848484611d0d565b611d08576040517f08c379a0000000000000000000000000000000000000000000000000000000008152600401611cff90612a8e565b60405180910390fd5b505050565b6000611d2e8473ffffffffffffffffffffffffffffffffffffffff1661207e565b15611e97578373ffffffffffffffffffffffffffffffffffffffff1663150b7a02611d576113dc565b8786866040518563ffffffff1660e01b8152600401611d7994939291906129e5565b602060405180830381600087803b158015611d9357600080fd5b505af1925050508015611dc457506040513d601f19601f82011682018060405250810190611dc19190612458565b60015b611e47573d8060008114611df4576040519150601f19603f3d011682016040523d82523d6000602084013e611df9565b606091505b50600081511415611e3f576040517f08c379a0000000000000000000000000000000000000000000000000000000008152600401611e3690612a8e565b60405180910390fd5b805181602001fd5b63150b7a0260e01b7bffffffffffffffffffffffffffffffffffffffffffffffffffffffff1916817bffffffffffffffffffffffffffffffffffffffffffffffffffffffff191614915050611e9c565b600190505b949350505050565b600073ffffffffffffffffffffffffffffffffffffffff168273ffffffffffffffffffffffffffffffffffffffff161415611f14576040517f08c379a0000000000000000000000000000000000000000000000000000000008152600401611f0b90612c4e565b60405180910390fd5b611f1d816113e4565b15611f5d576040517f08c379a0000000000000000000000000000000000000000000000000000000008152600401611f5490612b0e565b60405180910390fd5b611f6960008383611ca8565b6001600360008473ffffffffffffffffffffffffffffffffffffffff1673ffffffffffffffffffffffffffffffffffffffff1681526020019081526020016000206000828254611fb99190612e02565b92505081905550816002600083815260200190815260200160002060006101000a81548173ffffffffffffffffffffffffffffffffffffffff021916908373ffffffffffffffffffffffffffffffffffffffff160217905550808273ffffffffffffffffffffffffffffffffffffffff16600073ffffffffffffffffffffffffffffffffffffffff167fddf252ad1be2c89b69c2b068fc378daa952ba7f163c4a11628f55a4df523b3ef60405160405180910390a461207a60008383611cad565b5050565b6000808273ffffffffffffffffffffffffffffffffffffffff163b119050919050565b8280546120ad90612fcd565b90600052602060002090601f0160209004810192826120cf5760008555612116565b82601f106120e857803560ff1916838001178555612116565b82800160010185558215612116579182015b828111156121155782358255916020019190600101906120fa565b5b5090506121239190612127565b5090565b5b80821115612140576000816000905550600101612128565b5090565b600061215761215284612d6e565b612d49565b90508281526020810184848401111561216f57600080fd5b61217a848285612f8b565b509392505050565b600081359050612191816136f1565b92915050565b6000813590506121a681613708565b92915050565b6000813590506121bb8161371f565b92915050565b6000815190506121d08161371f565b92915050565b600082601f8301126121e757600080fd5b81356121f7848260208601612144565b91505092915050565b60008083601f84011261221257600080fd5b8235905067ffffffffffffffff81111561222b57600080fd5b60208301915083600182028301111561224357600080fd5b9250929050565b60008135905061225981613736565b92915050565b60006020828403121561227157600080fd5b600061227f84828501612182565b91505092915050565b6000806040838503121561229b57600080fd5b60006122a985828601612182565b92505060206122ba85828601612182565b9150509250929050565b6000806000606084860312156122d957600080fd5b60006122e786828701612182565b93505060206122f886828701612182565b92505060406123098682870161224a565b9150509250925092565b6000806000806080858703121561232957600080fd5b600061233787828801612182565b945050602061234887828801612182565b93505060406123598782880161224a565b925050606085013567ffffffffffffffff81111561237657600080fd5b612382878288016121d6565b91505092959194509250565b600080604083850312156123a157600080fd5b60006123af85828601612182565b92505060206123c085828601612197565b9150509250929050565b600080604083850312156123dd57600080fd5b60006123eb85828601612182565b92505060206123fc8582860161224a565b9150509250929050565b60006020828403121561241857600080fd5b600061242684828501612197565b91505092915050565b60006020828403121561244157600080fd5b600061244f848285016121ac565b91505092915050565b60006020828403121561246a57600080fd5b6000612478848285016121c1565b91505092915050565b6000806020838503121561249457600080fd5b600083013567ffffffffffffffff8111156124ae57600080fd5b6124ba85828601612200565b92509250509250929050565b6000602082840312156124d857600080fd5b60006124e68482850161224a565b91505092915050565b6124f881612f17565b82525050565b61250781612f29565b82525050565b600061251882612db4565b6125228185612dca565b9350612532818560208601612f9a565b61253b81613166565b840191505092915050565b600061255182612dbf565b61255b8185612de6565b935061256b818560208601612f9a565b61257481613166565b840191505092915050565b600061258a82612dbf565b6125948185612df7565b93506125a4818560208601612f9a565b80840191505092915050565b600081546125bd81612fcd565b6125c78186612df7565b945060018216600081146125e257600181146125f357612626565b60ff19831686528186019350612626565b6125fc85612d9f565b60005b8381101561261e578154818901526001820191506020810190506125ff565b838801955050505b50505092915050565b600061263c601683612de6565b915061264782613177565b602082019050919050565b600061265f603283612de6565b915061266a826131a0565b604082019050919050565b6000612682601b83612de6565b915061268d826131ef565b602082019050919050565b60006126a5602683612de6565b91506126b082613218565b604082019050919050565b60006126c8602583612de6565b91506126d382613267565b604082019050919050565b60006126eb601c83612de6565b91506126f6826132b6565b602082019050919050565b600061270e602483612de6565b9150612719826132df565b604082019050919050565b6000612731601983612de6565b915061273c8261332e565b602082019050919050565b6000612754602c83612de6565b915061275f82613357565b604082019050919050565b6000612777601783612de6565b9150612782826133a6565b602082019050919050565b600061279a603883612de6565b91506127a5826133cf565b604082019050919050565b60006127bd602a83612de6565b91506127c88261341e565b604082019050919050565b60006127e0602983612de6565b91506127eb8261346d565b604082019050919050565b6000612803600b83612de6565b915061280e826134bc565b602082019050919050565b6000612826601d83612de6565b9150612831826134e5565b602082019050919050565b6000612849602083612de6565b91506128548261350e565b602082019050919050565b600061286c602c83612de6565b915061287782613537565b604082019050919050565b600061288f600583612df7565b915061289a82613586565b600582019050919050565b60006128b2601b83612de6565b91506128bd826135af565b602082019050919050565b60006128d5602083612de6565b91506128e0826135d8565b602082019050919050565b60006128f8602183612de6565b915061290382613601565b604082019050919050565b600061291b602183612de6565b915061292682613650565b604082019050919050565b600061293e600083612ddb565b91506129498261369f565b600082019050919050565b6000612961603183612de6565b915061296c826136a2565b604082019050919050565b61298081612f81565b82525050565b600061299282856125b0565b915061299e828461257f565b91506129a982612882565b91508190509392505050565b60006129c082612931565b9150819050919050565b60006020820190506129df60008301846124ef565b92915050565b60006080820190506129fa60008301876124ef565b612a0760208301866124ef565b612a146040830185612977565b8181036060830152612a26818461250d565b905095945050505050565b6000602082019050612a4660008301846124fe565b92915050565b60006020820190508181036000830152612a668184612546565b905092915050565b60006020820190508181036000830152612a878161262f565b9050919050565b60006020820190508181036000830152612aa781612652565b9050919050565b60006020820190508181036000830152612ac781612675565b9050919050565b60006020820190508181036000830152612ae781612698565b9050919050565b60006020820190508181036000830152612b07816126bb565b9050919050565b60006020820190508181036000830152612b27816126de565b9050919050565b60006020820190508181036000830152612b4781612701565b9050919050565b60006020820190508181036000830152612b6781612724565b9050919050565b60006020820190508181036000830152612b8781612747565b9050919050565b60006020820190508181036000830152612ba78161276a565b9050919050565b60006020820190508181036000830152612bc78161278d565b9050919050565b60006020820190508181036000830152612be7816127b0565b9050919050565b60006020820190508181036000830152612c07816127d3565b9050919050565b60006020820190508181036000830152612c27816127f6565b9050919050565b60006020820190508181036000830152612c4781612819565b9050919050565b60006020820190508181036000830152612c678161283c565b9050919050565b60006020820190508181036000830152612c878161285f565b9050919050565b60006020820190508181036000830152612ca7816128a5565b9050919050565b60006020820190508181036000830152612cc7816128c8565b9050919050565b60006020820190508181036000830152612ce7816128eb565b9050919050565b60006020820190508181036000830152612d078161290e565b9050919050565b60006020820190508181036000830152612d2781612954565b9050919050565b6000602082019050612d436000830184612977565b92915050565b6000612d53612d64565b9050612d5f8282612fff565b919050565b6000604051905090565b600067ffffffffffffffff821115612d8957612d88613137565b5b612d9282613166565b9050602081019050919050565b60008190508160005260206000209050919050565b600081519050919050565b600081519050919050565b600082825260208201905092915050565b600081905092915050565b600082825260208201905092915050565b600081905092915050565b6000612e0d82612f81565b9150612e1883612f81565b9250827fffffffffffffffffffffffffffffffffffffffffffffffffffffffffffffffff03821115612e4d57612e4c6130aa565b5b828201905092915050565b6000612e6382612f81565b9150612e6e83612f81565b925082612e7e57612e7d6130d9565b5b828204905092915050565b6000612e9482612f81565b9150612e9f83612f81565b9250817fffffffffffffffffffffffffffffffffffffffffffffffffffffffffffffffff0483118215151615612ed857612ed76130aa565b5b828202905092915050565b6000612eee82612f81565b9150612ef983612f81565b925082821015612f0c57612f0b6130aa565b5b828203905092915050565b6000612f2282612f61565b9050919050565b60008115159050919050565b60007fffffffff0000000000000000000000000000000000000000000000000000000082169050919050565b600073ffffffffffffffffffffffffffffffffffffffff82169050919050565b6000819050919050565b82818337600083830152505050565b60005b83811015612fb8578082015181840152602081019050612f9d565b83811115612fc7576000848401525b50505050565b60006002820490506001821680612fe557607f821691505b60208210811415612ff957612ff8613108565b5b50919050565b61300882613166565b810181811067ffffffffffffffff8211171561302757613026613137565b5b80604052505050565b600061303b82612f81565b91507fffffffffffffffffffffffffffffffffffffffffffffffffffffffffffffffff82141561306e5761306d6130aa565b5b600182019050919050565b600061308482612f81565b915061308f83612f81565b92508261309f5761309e6130d9565b5b828206905092915050565b7f4e487b7100000000000000000000000000000000000000000000000000000000600052601160045260246000fd5b7f4e487b7100000000000000000000000000000000000000000000000000000000600052601260045260246000fd5b7f4e487b7100000000000000000000000000000000000000000000000000000000600052602260045260246000fd5b7f4e487b7100000000000000000000000000000000000000000000000000000000600052604160045260246000fd5b6000601f19601f8301169050919050565b7f2e2e2e6d696e74696e67206e6f7420656e61626c656400000000000000000000600082015250565b7f4552433732313a207472616e7366657220746f206e6f6e20455243373231526560008201527f63656976657220696d706c656d656e7465720000000000000000000000000000602082015250565b7f2e2e2e6661696c656420746f2072657472696576652066756e64730000000000600082015250565b7f4f776e61626c653a206e6577206f776e657220697320746865207a65726f206160008201527f6464726573730000000000000000000000000000000000000000000000000000602082015250565b7f4552433732313a207472616e736665722066726f6d20696e636f72726563742060008201527f6f776e6572000000000000000000000000000000000000000000000000000000602082015250565b7f4552433732313a20746f6b656e20616c7265616479206d696e74656400000000600082015250565b7f4552433732313a207472616e7366657220746f20746865207a65726f2061646460008201527f7265737300000000000000000000000000000000000000000000000000000000602082015250565b7f4552433732313a20617070726f766520746f2063616c6c657200000000000000600082015250565b7f4552433732313a206f70657261746f7220717565727920666f72206e6f6e657860008201527f697374656e7420746f6b656e0000000000000000000000000000000000000000602082015250565b7f2e2e2e6e6f2066756e647320746f207769746864726177000000000000000000600082015250565b7f4552433732313a20617070726f76652063616c6c6572206973206e6f74206f7760008201527f6e6572206e6f7220617070726f76656420666f7220616c6c0000000000000000602082015250565b7f4552433732313a2062616c616e636520717565727920666f7220746865207a6560008201527f726f206164647265737300000000000000000000000000000000000000000000602082015250565b7f4552433732313a206f776e657220717565727920666f72206e6f6e657869737460008201527f656e7420746f6b656e0000000000000000000000000000000000000000000000602082015250565b7f2e2e2e736f6c64206f7574000000000000000000000000000000000000000000600082015250565b7f2e2e2e7061792074686520636f7272656374206d696e74207072696365000000600082015250565b7f4552433732313a206d696e7420746f20746865207a65726f2061646472657373600082015250565b7f4552433732313a20617070726f76656420717565727920666f72206e6f6e657860008201527f697374656e7420746f6b656e0000000000000000000000000000000000000000602082015250565b7f2e6a736f6e000000000000000000000000000000000000000000000000000000600082015250565b7f2e2e2e6e667420746f6b656e20646f6573206e6f742065786973740000000000600082015250565b7f4f776e61626c653a2063616c6c6572206973206e6f7420746865206f776e6572600082015250565b7f4552433732313a20617070726f76616c20746f2063757272656e74206f776e6560008201527f7200000000000000000000000000000000000000000000000000000000000000602082015250565b7f2e2e2e657863656564732077616c6c6574206c696d6974206f662032206e667460008201527f7300000000000000000000000000000000000000000000000000000000000000602082015250565b50565b7f4552433732313a207472616e736665722063616c6c6572206973206e6f74206f60008201527f776e6572206e6f7220617070726f766564000000000000000000000000000000602082015250565b6136fa81612f17565b811461370557600080fd5b50565b61371181612f29565b811461371c57600080fd5b50565b61372881612f35565b811461373357600080fd5b50565b61373f81612f81565b811461374a57600080fd5b5056fea26469706673582212205f5e339b494c56ae25749facd02a096228ad365050ad0c80cff3707ef5a718ed64736f6c63430008040033",
  "linkReferences": {},
  "deployedLinkReferences": {}
}